{
  "contractName": "paimai",
  "abi": [
    {
      "constant": true,
      "inputs": [
        {
          "internalType": "uint256",
          "name": "",
          "type": "uint256"
        }
      ],
      "name": "paimaimap",
      "outputs": [
        {
          "internalType": "uint256",
          "name": "auctionendtime",
          "type": "uint256"
        },
        {
          "internalType": "address",
          "name": "giver_address",
          "type": "address"
        },
        {
          "internalType": "uint256",
          "name": "goal_NFT",
          "type": "uint256"
        },
        {
          "internalType": "uint256",
          "name": "money_down",
          "type": "uint256"
        },
        {
          "internalType": "address",
          "name": "bidderaddress",
          "type": "address"
        },
        {
          "internalType": "uint256",
          "name": "money_highest",
          "type": "uint256"
        }
      ],
      "payable": false,
      "stateMutability": "view",
      "type": "function"
    },
    {
      "constant": false,
      "inputs": [
        {
          "internalType": "string",
          "name": "_student_id",
          "type": "string"
        }
      ],
      "name": "do_nft",
      "outputs": [],
      "payable": true,
      "stateMutability": "payable",
      "type": "function"
    },
    {
      "constant": true,
      "inputs": [],
      "name": "showallpaimai",
      "outputs": [
        {
          "components": [
            {
              "internalType": "uint256",
              "name": "auctionendtime",
              "type": "uint256"
            },
            {
              "internalType": "address",
              "name": "giver_address",
              "type": "address"
            },
            {
              "internalType": "uint256",
              "name": "goal_NFT",
              "type": "uint256"
            },
            {
              "internalType": "uint256",
              "name": "money_down",
              "type": "uint256"
            },
            {
              "internalType": "address",
              "name": "bidderaddress",
              "type": "address"
            },
            {
              "internalType": "uint256",
              "name": "money_highest",
              "type": "uint256"
            }
          ],
          "internalType": "struct paimai.event_paimai[]",
          "name": "",
          "type": "tuple[]"
        }
      ],
      "payable": false,
      "stateMutability": "view",
      "type": "function"
    },
    {
      "constant": true,
      "inputs": [],
      "name": "shownftforme",
      "outputs": [
        {
          "internalType": "uint256[]",
          "name": "",
          "type": "uint256[]"
        }
      ],
      "payable": false,
      "stateMutability": "view",
      "type": "function"
    },
    {
      "constant": true,
      "inputs": [],
      "name": "shownftforpaimai",
      "outputs": [
        {
          "internalType": "uint256[]",
          "name": "",
          "type": "uint256[]"
        }
      ],
      "payable": false,
      "stateMutability": "view",
      "type": "function"
    },
    {
      "constant": true,
      "inputs": [],
      "name": "shownftforpai",
      "outputs": [
        {
          "components": [
            {
              "internalType": "uint256",
              "name": "auctionendtime",
              "type": "uint256"
            },
            {
              "internalType": "address",
              "name": "giver_address",
              "type": "address"
            },
            {
              "internalType": "uint256",
              "name": "goal_NFT",
              "type": "uint256"
            },
            {
              "internalType": "uint256",
              "name": "money_down",
              "type": "uint256"
            },
            {
              "internalType": "address",
              "name": "bidderaddress",
              "type": "address"
            },
            {
              "internalType": "uint256",
              "name": "money_highest",
              "type": "uint256"
            }
          ],
          "internalType": "struct paimai.event_paimai[]",
          "name": "",
          "type": "tuple[]"
        }
      ],
      "payable": false,
      "stateMutability": "view",
      "type": "function"
    },
    {
      "constant": true,
      "inputs": [],
      "name": "shownftformai",
      "outputs": [
        {
          "components": [
            {
              "internalType": "uint256",
              "name": "auctionendtime",
              "type": "uint256"
            },
            {
              "internalType": "address",
              "name": "giver_address",
              "type": "address"
            },
            {
              "internalType": "uint256",
              "name": "goal_NFT",
              "type": "uint256"
            },
            {
              "internalType": "uint256",
              "name": "money_down",
              "type": "uint256"
            },
            {
              "internalType": "address",
              "name": "bidderaddress",
              "type": "address"
            },
            {
              "internalType": "uint256",
              "name": "money_highest",
              "type": "uint256"
            }
          ],
          "internalType": "struct paimai.event_paimai[]",
          "name": "",
          "type": "tuple[]"
        }
      ],
      "payable": false,
      "stateMutability": "view",
      "type": "function"
    },
    {
      "constant": false,
      "inputs": [
        {
          "internalType": "uint256",
          "name": "ftpaddress",
          "type": "uint256"
        },
        {
          "internalType": "uint256",
          "name": "_money_down",
          "type": "uint256"
        },
        {
          "internalType": "uint256",
          "name": "_time",
          "type": "uint256"
        }
      ],
      "name": "newevent_paimai",
      "outputs": [],
      "payable": false,
      "stateMutability": "nonpayable",
      "type": "function"
    },
    {
      "constant": false,
      "inputs": [
        {
          "internalType": "uint256",
          "name": "_paimaiindex",
          "type": "uint256"
        }
      ],
      "name": "event_pai",
      "outputs": [],
      "payable": true,
      "stateMutability": "payable",
      "type": "function"
    },
    {
      "constant": false,
      "inputs": [
        {
          "internalType": "uint256",
          "name": "_paimaiindex",
          "type": "uint256"
        }
      ],
      "name": "endthepaimai",
      "outputs": [],
      "payable": false,
      "stateMutability": "nonpayable",
      "type": "function"
    }
  ],
  "bytecode": "0x608060405234801561001057600080fd5b5061175e806100206000396000f3fe6080604052600436106100915760003560e01c80636e0c1868116100595780636e0c18681461014d578063760a07351461017857806379f4f2a8146101a35780637ec94c8c146101e5578063e23a7cce1461020e57610091565b806301abd6dd14610096578063151afe31146100c15780632831dbce146100dd57806337e54438146100f957806363d5e2ec14610124575b600080fd5b3480156100a257600080fd5b506100ab610239565b6040516100b891906114c7565b60405180910390f35b6100db60048036036100d69190810190611273565b61036c565b005b6100f760048036036100f29190810190611232565b61074f565b005b34801561010557600080fd5b5061010e61092d565b60405161011b91906114e9565b60405180910390f35b34801561013057600080fd5b5061014b60048036036101469190810190611273565b6109c5565b005b34801561015957600080fd5b50610162610a90565b60405161016f91906114c7565b60405180910390f35b34801561018457600080fd5b5061018d610c03565b60405161019a91906114e9565b60405180910390f35b3480156101af57600080fd5b506101ca60048036036101c59190810190611273565b610c9b565b6040516101dc9695949392919061152d565b60405180910390f35b3480156101f157600080fd5b5061020c6004803603610207919081019061129c565b610d24565b005b34801561021a57600080fd5b50610223611056565b60405161023091906114c7565b60405180910390f35b60606001805480602002602001604051908101604052809291908181526020016000905b8282101561036357838290600052602060002090600602016040518060c0016040529081600082015481526020016001820160009054906101000a900473ffffffffffffffffffffffffffffffffffffffff1673ffffffffffffffffffffffffffffffffffffffff1673ffffffffffffffffffffffffffffffffffffffff16815260200160028201548152602001600382015481526020016004820160009054906101000a900473ffffffffffffffffffffffffffffffffffffffff1673ffffffffffffffffffffffffffffffffffffffff1673ffffffffffffffffffffffffffffffffffffffff1681526020016005820154815250508152602001906001019061025d565b50505050905090565b6001818154811061037957fe5b906000526020600020906006020160000154421061039657600080fd5b600181815481106103a357fe5b90600052602060002090600602016005015434116103c057600080fd5b600181815481106103cd57fe5b906000526020600020906006020160040160009054906101000a900473ffffffffffffffffffffffffffffffffffffffff1673ffffffffffffffffffffffffffffffffffffffff166108fc6001838154811061042557fe5b9060005260206000209060060201600501549081150290604051600060405180830381858888f19350505050158015610462573d6000803e3d6000fd5b50346001828154811061047157fe5b906000526020600020906006020160050181905550336001828154811061049457fe5b906000526020600020906006020160040160006101000a81548173ffffffffffffffffffffffffffffffffffffffff021916908373ffffffffffffffffffffffffffffffffffffffff160217905550600260003373ffffffffffffffffffffffffffffffffffffffff1673ffffffffffffffffffffffffffffffffffffffff16815260200190815260200160002060080160008154809291906001019190505550600260003373ffffffffffffffffffffffffffffffffffffffff1673ffffffffffffffffffffffffffffffffffffffff1681526020019081526020016000206009016040518060c001604052806001848154811061058f57fe5b9060005260206000209060060201600001548152602001600184815481106105b357fe5b906000526020600020906006020160010160009054906101000a900473ffffffffffffffffffffffffffffffffffffffff1673ffffffffffffffffffffffffffffffffffffffff1681526020016001848154811061060d57fe5b90600052602060002090600602016002015481526020016001848154811061063157fe5b90600052602060002090600602016003015481526020013373ffffffffffffffffffffffffffffffffffffffff16815260200134815250908060018154018082558091505090600182039060005260206000209060060201600090919290919091506000820151816000015560208201518160010160006101000a81548173ffffffffffffffffffffffffffffffffffffffff021916908373ffffffffffffffffffffffffffffffffffffffff160217905550604082015181600201556060820151816003015560808201518160040160006101000a81548173ffffffffffffffffffffffffffffffffffffffff021916908373ffffffffffffffffffffffffffffffffffffffff16021790555060a0820151816005015550505050565b6001341461075c57600080fd5b600260003373ffffffffffffffffffffffffffffffffffffffff1673ffffffffffffffffffffffffffffffffffffffff168152602001908152602001600020600301816040516020016107af919061150b565b6040516020818303038152906040528051906020012060001c9080600181540180825580915050906001820390600052602060002001600090919290919091505550600260003373ffffffffffffffffffffffffffffffffffffffff1673ffffffffffffffffffffffffffffffffffffffff16815260200190815260200160002060010181604051602001610844919061150b565b6040516020818303038152906040528051906020012060001c9080600181540180825580915050906001820390600052602060002001600090919290919091505550600260003373ffffffffffffffffffffffffffffffffffffffff1673ffffffffffffffffffffffffffffffffffffffff16815260200190815260200160002060020160008154809291906001019190505550600260003373ffffffffffffffffffffffffffffffffffffffff1673ffffffffffffffffffffffffffffffffffffffff1681526020019081526020016000206000016000815480929190600101919050555050565b6060600260003373ffffffffffffffffffffffffffffffffffffffff1673ffffffffffffffffffffffffffffffffffffffff1681526020019081526020016000206003018054806020026020016040519081016040528092919081815260200182805480156109bb57602002820191906000526020600020905b8154815260200190600101908083116109a7575b5050505050905090565b60026000600183815481106109d657fe5b906000526020600020906006020160040160009054906101000a900473ffffffffffffffffffffffffffffffffffffffff1673ffffffffffffffffffffffffffffffffffffffff1673ffffffffffffffffffffffffffffffffffffffff16815260200190815260200160002060050160018281548110610a5257fe5b906000526020600020906006020160020154908060018154018082558091505090600182039060005260206000200160009091929091909150555050565b6060600260003373ffffffffffffffffffffffffffffffffffffffff1673ffffffffffffffffffffffffffffffffffffffff168152602001908152602001600020600701805480602002602001604051908101604052809291908181526020016000905b82821015610bfa57838290600052602060002090600602016040518060c0016040529081600082015481526020016001820160009054906101000a900473ffffffffffffffffffffffffffffffffffffffff1673ffffffffffffffffffffffffffffffffffffffff1673ffffffffffffffffffffffffffffffffffffffff16815260200160028201548152602001600382015481526020016004820160009054906101000a900473ffffffffffffffffffffffffffffffffffffffff1673ffffffffffffffffffffffffffffffffffffffff1673ffffffffffffffffffffffffffffffffffffffff16815260200160058201548152505081526020019060010190610af4565b50505050905090565b6060600260003373ffffffffffffffffffffffffffffffffffffffff1673ffffffffffffffffffffffffffffffffffffffff168152602001908152602001600020600501805480602002602001604051908101604052809291908181526020018280548015610c9157602002820191906000526020600020905b815481526020019060010190808311610c7d575b5050505050905090565b60018181548110610ca857fe5b90600052602060002090600602016000915090508060000154908060010160009054906101000a900473ffffffffffffffffffffffffffffffffffffffff16908060020154908060030154908060040160009054906101000a900473ffffffffffffffffffffffffffffffffffffffff16908060050154905086565b60008081548092919060010191905055506000428201905060016040518060c001604052808381526020013373ffffffffffffffffffffffffffffffffffffffff168152602001868152602001858152602001600073ffffffffffffffffffffffffffffffffffffffff1681526020016000815250908060018154018082558091505090600182039060005260206000209060060201600090919290919091506000820151816000015560208201518160010160006101000a81548173ffffffffffffffffffffffffffffffffffffffff021916908373ffffffffffffffffffffffffffffffffffffffff160217905550604082015181600201556060820151816003015560808201518160040160006101000a81548173ffffffffffffffffffffffffffffffffffffffff021916908373ffffffffffffffffffffffffffffffffffffffff16021790555060a08201518160050155505050600260003373ffffffffffffffffffffffffffffffffffffffff1673ffffffffffffffffffffffffffffffffffffffff16815260200190815260200160002060060160008154809291906001019190505550600260003373ffffffffffffffffffffffffffffffffffffffff1673ffffffffffffffffffffffffffffffffffffffff1681526020019081526020016000206007016040518060c001604052808381526020013373ffffffffffffffffffffffffffffffffffffffff168152602001868152602001858152602001600073ffffffffffffffffffffffffffffffffffffffff1681526020016000815250908060018154018082558091505090600182039060005260206000209060060201600090919290919091506000820151816000015560208201518160010160006101000a81548173ffffffffffffffffffffffffffffffffffffffff021916908373ffffffffffffffffffffffffffffffffffffffff160217905550604082015181600201556060820151816003015560808201518160040160006101000a81548173ffffffffffffffffffffffffffffffffffffffff021916908373ffffffffffffffffffffffffffffffffffffffff16021790555060a0820151816005015550505050505050565b6060600260003373ffffffffffffffffffffffffffffffffffffffff1673ffffffffffffffffffffffffffffffffffffffff168152602001908152602001600020600901805480602002602001604051908101604052809291908181526020016000905b828210156111c057838290600052602060002090600602016040518060c0016040529081600082015481526020016001820160009054906101000a900473ffffffffffffffffffffffffffffffffffffffff1673ffffffffffffffffffffffffffffffffffffffff1673ffffffffffffffffffffffffffffffffffffffff16815260200160028201548152602001600382015481526020016004820160009054906101000a900473ffffffffffffffffffffffffffffffffffffffff1673ffffffffffffffffffffffffffffffffffffffff1673ffffffffffffffffffffffffffffffffffffffff168152602001600582015481525050815260200190600101906110ba565b50505050905090565b600082601f8301126111da57600080fd5b81356111ed6111e8826115bb565b61158e565b9150808252602083016020830185838301111561120957600080fd5b6112148382846116b1565b50505092915050565b60008135905061122c81611704565b92915050565b60006020828403121561124457600080fd5b600082013567ffffffffffffffff81111561125e57600080fd5b61126a848285016111c9565b91505092915050565b60006020828403121561128557600080fd5b60006112938482850161121d565b91505092915050565b6000806000606084860312156112b157600080fd5b60006112bf8682870161121d565b93505060206112d08682870161121d565b92505060406112e18682870161121d565b9150509250925092565b60006112f7838361142e565b60c08301905092915050565b600061130f83836114a9565b60208301905092915050565b61132481611675565b82525050565b61133381611675565b82525050565b600061134482611607565b61134e8185611642565b9350611359836115e7565b8060005b8381101561138a57815161137188826112eb565b975061137c83611628565b92505060018101905061135d565b5085935050505092915050565b60006113a282611612565b6113ac8185611653565b93506113b7836115f7565b8060005b838110156113e85781516113cf8882611303565b97506113da83611635565b9250506001810190506113bb565b5085935050505092915050565b60006114008261161d565b61140a8185611664565b935061141a8185602086016116c0565b611423816116f3565b840191505092915050565b60c08201600082015161144460008501826114a9565b506020820151611457602085018261131b565b50604082015161146a60408501826114a9565b50606082015161147d60608501826114a9565b506080820151611490608085018261131b565b5060a08201516114a360a08501826114a9565b50505050565b6114b2816116a7565b82525050565b6114c1816116a7565b82525050565b600060208201905081810360008301526114e18184611339565b905092915050565b600060208201905081810360008301526115038184611397565b905092915050565b6000602082019050818103600083015261152581846113f5565b905092915050565b600060c08201905061154260008301896114b8565b61154f602083018861132a565b61155c60408301876114b8565b61156960608301866114b8565b611576608083018561132a565b61158360a08301846114b8565b979650505050505050565b6000604051905081810181811067ffffffffffffffff821117156115b157600080fd5b8060405250919050565b600067ffffffffffffffff8211156115d257600080fd5b601f19601f8301169050602081019050919050565b6000819050602082019050919050565b6000819050602082019050919050565b600081519050919050565b600081519050919050565b600081519050919050565b6000602082019050919050565b6000602082019050919050565b600082825260208201905092915050565b600082825260208201905092915050565b600082825260208201905092915050565b600061168082611687565b9050919050565b600073ffffffffffffffffffffffffffffffffffffffff82169050919050565b6000819050919050565b82818337600083830152505050565b60005b838110156116de5780820151818401526020810190506116c3565b838111156116ed576000848401525b50505050565b6000601f19601f8301169050919050565b61170d816116a7565b811461171857600080fd5b5056fea365627a7a72315820200afd6058894bd004b2edb21226b69b484f312b3a3d7d64e8ef50f7f8394b4b6c6578706572696d656e74616cf564736f6c63430005100040",
  "source": "pragma solidity >=0.4.21 <0.7.0;\r\npragma experimental ABIEncoderV2;\r\n\r\ncontract paimai{\r\n    \r\n    //address bidder_address\r\n    \r\n    //bytes32 NFT_hash_number;\r\n    \r\n    \r\n    struct event_paimai{\r\n        uint auctionendtime;\r\n        address giver_address;\r\n        uint goal_NFT; \r\n        uint money_down;\r\n        //time\r\n        address bidderaddress;\r\n        uint money_highest;\r\n        //mapping(uint => bidder) biddermap;\r\n        //bidder[] biddermap;\r\n    }\r\n    uint paimaiaccount;\r\n    //mapping(uint => event_paimai) paimaimap;\r\n    event_paimai[] public paimaimap;\r\n    \r\n    struct giver{\r\n        //address giver_address;\r\n        uint NFTallamount;\r\n        uint[] nftall;\r\n        uint NFTaccountforme;\r\n        //mapping(uint => NFT) nftmapforme;\r\n        uint[] nftmapforme;\r\n        uint NFTaccountforpaimai;\r\n        //mapping(uint => NFT) nftmapforpaimai;\r\n        uint[] nftmapforpaimai;\r\n        uint personalmaiaccount;\r\n        //mapping(uint => event_paimai) personalmaimap;\r\n        event_paimai[] personalmaimap;\r\n        uint personalpaiaccount;\r\n        //mapping(uint => event_paimai) personalpaimap;\r\n        event_paimai[] personalpaimap;\r\n    }\r\n    //uint giveraccount;\r\n    mapping(address => giver) givermap;\r\n    //giver[] public givermap;\r\n    \r\n    //do NFT\r\n    function do_nft (string memory _student_id) public payable{\r\n        //payable\r\n        require(msg.value==1);\r\n        \r\n        givermap[msg.sender].nftmapforme.push((uint)(keccak256(abi.encode(_student_id))));\r\n        //givermap[msg.sender].nftmapforme.push((bytes memory)(1));\r\n        givermap[msg.sender].nftall.push((uint)(keccak256(abi.encode(_student_id))));\r\n        //givermap[msg.sender].nftall.push((bytes memory)(1));\r\n        \r\n        givermap[msg.sender].NFTaccountforme++;\r\n        givermap[msg.sender].NFTallamount++;\r\n        \r\n    }\r\n    \r\n    function showallpaimai() public view returns(event_paimai[] memory){\r\n        return paimaimap;\r\n    }\r\n     \r\n    //chakan zhuzao NFT\r\n    function shownftforme() public view returns(uint[] memory){\r\n        return givermap[msg.sender].nftmapforme;\r\n    }\r\n    \r\n    //chakan paimai NFT\r\n    function shownftforpaimai() public view returns(uint[] memory){\r\n        return givermap[msg.sender].nftmapforpaimai;\r\n    }\r\n    \r\n    //chakan pai de NFT\r\n    function shownftforpai() public view returns(event_paimai[] memory){\r\n        return givermap[msg.sender].personalpaimap;\r\n    }\r\n    \r\n    //chakan mai de NFT\r\n    function shownftformai() public view returns(event_paimai[] memory){\r\n        return givermap[msg.sender].personalmaimap;\r\n    }\r\n    \r\n    //paimai ziji de NFT\r\n    function newevent_paimai(uint ftpaddress, uint _money_down, uint _time)  public{\r\n        paimaiaccount++;\r\n        uint endtime=_time+block.timestamp;\r\n        paimaimap.push(event_paimai(endtime,msg.sender, ftpaddress, _money_down, (address)(0) ,0));\r\n        \r\n        givermap[msg.sender].personalmaiaccount++;\r\n        givermap[msg.sender].personalmaimap.push(event_paimai(endtime,msg.sender,ftpaddress,_money_down,(address)(0),0));\r\n    }\r\n    \r\n    //pai bieren de NFT\r\n    function event_pai(uint _paimaiindex)  public payable{\r\n        //time \r\n        require(block.timestamp<paimaimap[_paimaiindex].auctionendtime);\r\n        require(msg.value>paimaimap[_paimaiindex].money_highest);\r\n        //payable\r\n        //return the money\r\n        address((uint160)(paimaimap[_paimaiindex].bidderaddress)).transfer(paimaimap[_paimaiindex].money_highest);\r\n        \r\n        paimaimap[_paimaiindex].money_highest = msg.value;\r\n        paimaimap[_paimaiindex].bidderaddress = msg.sender;\r\n        \r\n        givermap[msg.sender].personalpaiaccount++;\r\n        givermap[msg.sender].personalpaimap.push(event_paimai(paimaimap[_paimaiindex].auctionendtime,paimaimap[_paimaiindex].giver_address, paimaimap[_paimaiindex].goal_NFT, paimaimap[_paimaiindex].money_down,msg.sender,msg.value));\r\n    }\r\n    \r\n    function endthepaimai(uint _paimaiindex) public{\r\n        givermap[paimaimap[_paimaiindex].bidderaddress].nftmapforpaimai.push(paimaimap[_paimaiindex].goal_NFT);\r\n    }\r\n    \r\n    \r\n}",
  "sourcePath": "C:\\Users\\A\\Desktop\\Dapp\\dapp_easy\\contracts\\myheyue.sol",
  "compiler": {
    "name": "solc",
    "version": "0.5.16+commit.9c3226ce.Emscripten.clang"
  },
  "schemaVersion": "3.4.3",
  "updatedAt": "2021-11-04T03:45:52.323Z",
  "devdoc": {
    "methods": {}
  },
  "userdoc": {
    "methods": {}
  }
}