{
  "contractName": "SimpleStorage",
  "abi": [
    {
      "constant": false,
      "inputs": [
        {
          "internalType": "uint256",
          "name": "x",
          "type": "uint256"
        }
      ],
      "name": "set",
      "outputs": [],
      "payable": false,
      "stateMutability": "nonpayable",
      "type": "function"
    },
    {
      "constant": true,
      "inputs": [],
      "name": "get",
      "outputs": [
        {
          "internalType": "uint256",
          "name": "",
          "type": "uint256"
        }
      ],
      "payable": false,
      "stateMutability": "view",
      "type": "function"
    },
    {
      "constant": false,
      "inputs": [
        {
          "internalType": "string",
          "name": "_student_id",
          "type": "string"
        }
      ],
      "name": "do_nft",
      "outputs": [],
      "payable": true,
      "stateMutability": "payable",
      "type": "function"
    },
    {
      "constant": true,
      "inputs": [],
      "name": "show_nft",
      "outputs": [
        {
          "internalType": "uint256",
          "name": "",
          "type": "uint256"
        }
      ],
      "payable": false,
      "stateMutability": "view",
      "type": "function"
    },
    {
      "constant": true,
      "inputs": [],
      "name": "show_nftpaimai",
      "outputs": [
        {
          "internalType": "uint256",
          "name": "",
          "type": "uint256"
        }
      ],
      "payable": false,
      "stateMutability": "view",
      "type": "function"
    },
    {
      "constant": true,
      "inputs": [],
      "name": "show_paimai_time",
      "outputs": [
        {
          "internalType": "uint256",
          "name": "",
          "type": "uint256"
        }
      ],
      "payable": false,
      "stateMutability": "view",
      "type": "function"
    },
    {
      "constant": true,
      "inputs": [],
      "name": "show_paimai_giveraddress",
      "outputs": [
        {
          "internalType": "address",
          "name": "",
          "type": "address"
        }
      ],
      "payable": false,
      "stateMutability": "view",
      "type": "function"
    },
    {
      "constant": true,
      "inputs": [],
      "name": "show_paimai_nft",
      "outputs": [
        {
          "internalType": "uint256",
          "name": "",
          "type": "uint256"
        }
      ],
      "payable": false,
      "stateMutability": "view",
      "type": "function"
    },
    {
      "constant": true,
      "inputs": [],
      "name": "show_paimai_moneydown",
      "outputs": [
        {
          "internalType": "uint256",
          "name": "",
          "type": "uint256"
        }
      ],
      "payable": false,
      "stateMutability": "view",
      "type": "function"
    },
    {
      "constant": true,
      "inputs": [],
      "name": "show_paimai_bidderaddress",
      "outputs": [
        {
          "internalType": "address",
          "name": "",
          "type": "address"
        }
      ],
      "payable": false,
      "stateMutability": "view",
      "type": "function"
    },
    {
      "constant": true,
      "inputs": [],
      "name": "show_paimai_moneyhigh",
      "outputs": [
        {
          "internalType": "uint256",
          "name": "",
          "type": "uint256"
        }
      ],
      "payable": false,
      "stateMutability": "view",
      "type": "function"
    },
    {
      "constant": false,
      "inputs": [
        {
          "internalType": "uint256",
          "name": "_time",
          "type": "uint256"
        },
        {
          "internalType": "uint256",
          "name": "nft_number",
          "type": "uint256"
        },
        {
          "internalType": "uint256",
          "name": "moneydown",
          "type": "uint256"
        }
      ],
      "name": "do_paimai",
      "outputs": [],
      "payable": false,
      "stateMutability": "nonpayable",
      "type": "function"
    },
    {
      "constant": false,
      "inputs": [],
      "name": "end_paimai",
      "outputs": [],
      "payable": false,
      "stateMutability": "nonpayable",
      "type": "function"
    },
    {
      "constant": false,
      "inputs": [],
      "name": "buy_nft",
      "outputs": [],
      "payable": true,
      "stateMutability": "payable",
      "type": "function"
    }
  ],
  "bytecode": "0x608060405234801561001057600080fd5b50610957806100206000396000f3fe6080604052600436106100dd5760003560e01c806399ab0e7c1161007f578063b8bb5d7e11610059578063b8bb5d7e1461025c578063b9a0625c14610287578063bbe72dfc146102b2578063da7315f8146102dd576100dd565b806399ab0e7c146101dd5780639d16bcea14610206578063b085e7c814610231576100dd565b806360fe47b1116100bb57806360fe47b1146101545780636d4ce63c1461017d57806386f0adb0146101a857806393ca4785146101b2576100dd565b80632831dbce146100e25780633a772b54146100fe5780635ca06ea514610129575b600080fd5b6100fc60048036036100f79190810190610691565b6102f4565b005b34801561010a57600080fd5b5061011361033b565b60405161012091906107de565b60405180910390f35b34801561013557600080fd5b5061013e610345565b60405161014b91906107de565b60405180910390f35b34801561016057600080fd5b5061017b600480360361017691908101906106d2565b61034f565b005b34801561018957600080fd5b50610192610359565b60405161019f91906107de565b60405180910390f35b6101b0610362565b005b3480156101be57600080fd5b506101c7610433565b6040516101d491906107de565b60405180910390f35b3480156101e957600080fd5b5061020460048036036101ff91908101906106fb565b61043d565b005b34801561021257600080fd5b5061021b6104f9565b60405161022891906107de565b60405180910390f35b34801561023d57600080fd5b50610246610503565b60405161025391906107de565b60405180910390f35b34801561026857600080fd5b5061027161050d565b60405161027e91906107a1565b60405180910390f35b34801561029357600080fd5b5061029c610537565b6040516102a991906107de565b60405180910390f35b3480156102be57600080fd5b506102c7610541565b6040516102d491906107a1565b60405180910390f35b3480156102e957600080fd5b506102f261056b565b005b670de0b6b3a7640000341461030857600080fd5b8060405160200161031991906107bc565b6040516020818303038152906040528051906020012060001c60078190555050565b6000600354905090565b6000600154905090565b8060008190555050565b60008054905090565b426001541161037057600080fd5b600654341161037e57600080fd5b600560009054906101000a900473ffffffffffffffffffffffffffffffffffffffff1673ffffffffffffffffffffffffffffffffffffffff166108fc6006549081150290604051600060405180830381858888f193505050501580156103e8573d6000803e3d6000fd5b503460068190555033600560006101000a81548173ffffffffffffffffffffffffffffffffffffffff021916908373ffffffffffffffffffffffffffffffffffffffff160217905550565b6000600754905090565b60006003541461044c57600080fd5b600042840190508060018190555033600260006101000a81548173ffffffffffffffffffffffffffffffffffffffff021916908373ffffffffffffffffffffffffffffffffffffffff16021790555082600381905550816004819055506000600560006101000a81548173ffffffffffffffffffffffffffffffffffffffff021916908373ffffffffffffffffffffffffffffffffffffffff160217905550600060068190555050505050565b6000600454905090565b6000600654905090565b6000600260009054906101000a900473ffffffffffffffffffffffffffffffffffffffff16905090565b6000600854905090565b6000600560009054906101000a900473ffffffffffffffffffffffffffffffffffffffff16905090565b426001541061057957600080fd5b60035460088190555060006001819055506000600260006101000a81548173ffffffffffffffffffffffffffffffffffffffff021916908373ffffffffffffffffffffffffffffffffffffffff160217905550600060038190555060006004819055506000600560006101000a81548173ffffffffffffffffffffffffffffffffffffffff021916908373ffffffffffffffffffffffffffffffffffffffff1602179055506000600681905550565b600082601f83011261063957600080fd5b813561064c61064782610826565b6107f9565b9150808252602083016020830185838301111561066857600080fd5b6106738382846108aa565b50505092915050565b60008135905061068b816108fd565b92915050565b6000602082840312156106a357600080fd5b600082013567ffffffffffffffff8111156106bd57600080fd5b6106c984828501610628565b91505092915050565b6000602082840312156106e457600080fd5b60006106f28482850161067c565b91505092915050565b60008060006060848603121561071057600080fd5b600061071e8682870161067c565b935050602061072f8682870161067c565b92505060406107408682870161067c565b9150509250925092565b6107538161086e565b82525050565b600061076482610852565b61076e818561085d565b935061077e8185602086016108b9565b610787816108ec565b840191505092915050565b61079b816108a0565b82525050565b60006020820190506107b6600083018461074a565b92915050565b600060208201905081810360008301526107d68184610759565b905092915050565b60006020820190506107f36000830184610792565b92915050565b6000604051905081810181811067ffffffffffffffff8211171561081c57600080fd5b8060405250919050565b600067ffffffffffffffff82111561083d57600080fd5b601f19601f8301169050602081019050919050565b600081519050919050565b600082825260208201905092915050565b600061087982610880565b9050919050565b600073ffffffffffffffffffffffffffffffffffffffff82169050919050565b6000819050919050565b82818337600083830152505050565b60005b838110156108d75780820151818401526020810190506108bc565b838111156108e6576000848401525b50505050565b6000601f19601f8301169050919050565b610906816108a0565b811461091157600080fd5b5056fea365627a7a723158205ef03ecc1e047f6cd868f976ceb0d01f2e4c5d7edf6d0e9deda60e75a30213786c6578706572696d656e74616cf564736f6c63430005100040",
  "source": "// SPDX-License-Identifier: MIT\npragma solidity >=0.4.21 <0.7.0;\npragma experimental ABIEncoderV2;\n\ncontract SimpleStorage {\n  uint storedData;\n\n  function set(uint x) public {\n    storedData = x;\n  }\n\n  function get() public view returns (uint) {\n    return storedData;\n  }\n\n  //paimai\n    uint auctionendtime;\n    address giver_address;\n    uint goal_NFT;\n    uint money_down;\n    address bidderaddress;\n    uint bidder_money;\n    \n    //people\n    uint NFTforme;\n    \n    uint NFTforpaimai;\n    \n    function do_nft(string memory _student_id) public payable{\n        require(msg.value==1 ether);\n        NFTforme = (uint)(keccak256(abi.encode(_student_id)));\n    }\n    \n    function show_nft() public view returns(uint){\n        return NFTforme;\n    }\n    \n    function show_nftpaimai() public view returns(uint){\n        return NFTforpaimai;\n    }\n\n    function show_paimai_time() public view returns(uint){\n        return auctionendtime;\n    }\n\n    function show_paimai_giveraddress() public view returns(address){\n        return giver_address;\n    }\n\n    function show_paimai_nft() public view returns(uint){\n        return goal_NFT;\n    }\n\n    function show_paimai_moneydown() public view returns(uint){\n        return money_down;\n    }\n\n    function show_paimai_bidderaddress() public view returns(address){\n        return bidderaddress;\n    }\n\n    function show_paimai_moneyhigh() public view returns(uint){\n        return bidder_money;\n    }\n    \n    function do_paimai(uint _time, uint nft_number, uint moneydown) public{\n        require(goal_NFT==0);\n        uint endtime=_time+block.timestamp;\n        auctionendtime = endtime;\n        giver_address=msg.sender;\n        goal_NFT=nft_number;\n        money_down=moneydown;\n        bidderaddress=(address)(0);\n        bidder_money=0;\n    }\n    \n    function end_paimai()public{\n        require(auctionendtime<block.timestamp);\n        NFTforpaimai=goal_NFT;\n        auctionendtime=0;\n        giver_address=(address)(0);\n        goal_NFT=0;\n        money_down=0;\n        bidderaddress=(address)(0);\n        bidder_money=0;\n    }\n    \n    function buy_nft() public payable{\n        require(auctionendtime>block.timestamp);\n        require(msg.value>bidder_money);\n        address((uint160)(bidderaddress)).transfer(bidder_money);\n        bidder_money = msg.value;\n        bidderaddress = msg.sender;\n    }\n}\n",
  "sourcePath": "C:\\Users\\A\\Desktop\\Dapp\\dapp_easy\\contracts\\SimpleStorage.sol",
  "compiler": {
    "name": "solc",
    "version": "0.5.16+commit.9c3226ce.Emscripten.clang"
  },
  "schemaVersion": "3.4.3",
  "updatedAt": "2021-11-04T03:45:52.320Z",
  "devdoc": {
    "methods": {}
  },
  "userdoc": {
    "methods": {}
  }
}